{
  "contractName": "CompanyRegistry",
  "abi": [
    {
      "anonymous": false,
      "inputs": [
        {
          "indexed": true,
          "internalType": "address",
          "name": "walletAddress",
          "type": "address"
        },
        {
          "indexed": false,
          "internalType": "string",
          "name": "name",
          "type": "string"
        }
      ],
      "name": "CompanyAdded",
      "type": "event"
    },
    {
      "anonymous": false,
      "inputs": [
        {
          "indexed": true,
          "internalType": "address",
          "name": "company1",
          "type": "address"
        },
        {
          "indexed": true,
          "internalType": "address",
          "name": "company2",
          "type": "address"
        },
        {
          "indexed": false,
          "internalType": "bool",
          "name": "isPartnership",
          "type": "bool"
        }
      ],
      "name": "EcosystemUpdated",
      "type": "event"
    },
    {
      "anonymous": false,
      "inputs": [
        {
          "indexed": true,
          "internalType": "address",
          "name": "observer",
          "type": "address"
        },
        {
          "indexed": true,
          "internalType": "address",
          "name": "trustedCompany",
          "type": "address"
        },
        {
          "indexed": true,
          "internalType": "address",
          "name": "otherParty",
          "type": "address"
        },
        {
          "indexed": false,
          "internalType": "bool",
          "name": "trustGranted",
          "type": "bool"
        }
      ],
      "name": "TrustChangedForTrustedCompany",
      "type": "event"
    },
    {
      "anonymous": false,
      "inputs": [
        {
          "indexed": true,
          "internalType": "address",
          "name": "trustor",
          "type": "address"
        },
        {
          "indexed": true,
          "internalType": "address",
          "name": "trustee",
          "type": "address"
        }
      ],
      "name": "TrustGranted",
      "type": "event"
    },
    {
      "anonymous": false,
      "inputs": [
        {
          "indexed": true,
          "internalType": "address",
          "name": "trustor",
          "type": "address"
        },
        {
          "indexed": true,
          "internalType": "address",
          "name": "trustee",
          "type": "address"
        }
      ],
      "name": "TrustRevoked",
      "type": "event"
    },
    {
      "inputs": [
        {
          "internalType": "address",
          "name": "",
          "type": "address"
        }
      ],
      "name": "companies",
      "outputs": [
        {
          "internalType": "string",
          "name": "name",
          "type": "string"
        },
        {
          "internalType": "address",
          "name": "walletAddress",
          "type": "address"
        },
        {
          "internalType": "string",
          "name": "profilePhoto",
          "type": "string"
        },
        {
          "internalType": "bool",
          "name": "hasToken",
          "type": "bool"
        },
        {
          "internalType": "string",
          "name": "tokenName",
          "type": "string"
        }
      ],
      "stateMutability": "view",
      "type": "function",
      "constant": true
    },
    {
      "inputs": [
        {
          "internalType": "uint256",
          "name": "",
          "type": "uint256"
        }
      ],
      "name": "companyAddresses",
      "outputs": [
        {
          "internalType": "address",
          "name": "",
          "type": "address"
        }
      ],
      "stateMutability": "view",
      "type": "function",
      "constant": true
    },
    {
      "inputs": [
        {
          "internalType": "address",
          "name": "",
          "type": "address"
        },
        {
          "internalType": "address",
          "name": "",
          "type": "address"
        }
      ],
      "name": "trustMapping",
      "outputs": [
        {
          "internalType": "bool",
          "name": "isTrusted",
          "type": "bool"
        },
        {
          "internalType": "uint256",
          "name": "createdTimestamp",
          "type": "uint256"
        },
        {
          "internalType": "uint256",
          "name": "removedTimestamp",
          "type": "uint256"
        }
      ],
      "stateMutability": "view",
      "type": "function",
      "constant": true
    },
    {
      "inputs": [
        {
          "internalType": "string",
          "name": "_name",
          "type": "string"
        },
        {
          "internalType": "string",
          "name": "_profilePhoto",
          "type": "string"
        },
        {
          "internalType": "bool",
          "name": "_hasToken",
          "type": "bool"
        },
        {
          "internalType": "string",
          "name": "_tokenName",
          "type": "string"
        }
      ],
      "name": "addCompany",
      "outputs": [],
      "stateMutability": "nonpayable",
      "type": "function"
    },
    {
      "inputs": [
        {
          "internalType": "address",
          "name": "_company2",
          "type": "address"
        },
        {
          "internalType": "bool",
          "name": "_isTrusted",
          "type": "bool"
        }
      ],
      "name": "updateEcosystem",
      "outputs": [],
      "stateMutability": "nonpayable",
      "type": "function"
    },
    {
      "inputs": [],
      "name": "totalCompanies",
      "outputs": [
        {
          "internalType": "uint256",
          "name": "",
          "type": "uint256"
        }
      ],
      "stateMutability": "view",
      "type": "function",
      "constant": true
    },
    {
      "inputs": [
        {
          "internalType": "uint256",
          "name": "index",
          "type": "uint256"
        }
      ],
      "name": "companyAddressAtIndex",
      "outputs": [
        {
          "internalType": "address",
          "name": "",
          "type": "address"
        }
      ],
      "stateMutability": "view",
      "type": "function",
      "constant": true
    },
    {
      "inputs": [
        {
          "internalType": "address",
          "name": "_company1",
          "type": "address"
        },
        {
          "internalType": "address",
          "name": "_company2",
          "type": "address"
        }
      ],
      "name": "getTrustInfo",
      "outputs": [
        {
          "internalType": "bool",
          "name": "isTrusted",
          "type": "bool"
        },
        {
          "internalType": "uint256",
          "name": "createdTimestamp",
          "type": "uint256"
        },
        {
          "internalType": "uint256",
          "name": "removedTimestamp",
          "type": "uint256"
        }
      ],
      "stateMutability": "view",
      "type": "function",
      "constant": true
    }
  ],
  "bytecode": "0x608060405234801561001057600080fd5b50611b4c806100206000396000f3fe608060405234801561001057600080fd5b50600436106100885760003560e01c80634cad0a7d1161005b5780634cad0a7d1461012b578063512ddd6c1461015d578063996878451461018f578063d59ef98d146101bf57610088565b80630d3c8d381461008d578063268215a8146100a9578063355e6ce8146100d95780633b4cc7a31461010d575b600080fd5b6100a760048036038101906100a29190610f63565b6101db565b005b6100c360048036038101906100be9190610fd9565b61069a565b6040516100d09190611015565b60405180910390f35b6100f360048036038101906100ee9190611030565b610729565b6040516101049594939291906110fc565b60405180910390f35b610115610924565b6040516101229190611173565b60405180910390f35b6101456004803603810190610140919061118e565b610931565b604051610154939291906111ce565b60405180910390f35b6101776004803603810190610172919061118e565b6109df565b604051610186939291906111ce565b60405180910390f35b6101a960048036038101906101a49190610fd9565b610a23565b6040516101b69190611015565b60405180910390f35b6101d960048036038101906101d4919061133a565b610a62565b005b600073ffffffffffffffffffffffffffffffffffffffff166000803373ffffffffffffffffffffffffffffffffffffffff1673ffffffffffffffffffffffffffffffffffffffff16815260200190815260200160002060010160009054906101000a900473ffffffffffffffffffffffffffffffffffffffff1673ffffffffffffffffffffffffffffffffffffffff16036102ab576040517f08c379a00000000000000000000000000000000000000000000000000000000081526004016102a290611441565b60405180910390fd5b600073ffffffffffffffffffffffffffffffffffffffff166000808473ffffffffffffffffffffffffffffffffffffffff1673ffffffffffffffffffffffffffffffffffffffff16815260200190815260200160002060010160009054906101000a900473ffffffffffffffffffffffffffffffffffffffff1673ffffffffffffffffffffffffffffffffffffffff160361037b576040517f08c379a0000000000000000000000000000000000000000000000000000000008152600401610372906114ad565b60405180910390fd5b8173ffffffffffffffffffffffffffffffffffffffff163373ffffffffffffffffffffffffffffffffffffffff16036103e9576040517f08c379a00000000000000000000000000000000000000000000000000000000081526004016103e090611519565b60405180910390fd5b6000600160003373ffffffffffffffffffffffffffffffffffffffff1673ffffffffffffffffffffffffffffffffffffffff16815260200190815260200160002060008473ffffffffffffffffffffffffffffffffffffffff1673ffffffffffffffffffffffffffffffffffffffff16815260200190815260200160002090508115610552578060000160009054906101000a900460ff16156104c1576040517f08c379a00000000000000000000000000000000000000000000000000000000081526004016104b890611585565b60405180910390fd5b60018160000160006101000a81548160ff0219169083151502179055504281600101819055508273ffffffffffffffffffffffffffffffffffffffff163373ffffffffffffffffffffffffffffffffffffffff167f5641501d111c9194586c95482ad8f6eb1c992fa4a191ab977f1d0be05f361ef260405160405180910390a361054d33846001610d05565b610630565b8060000160009054906101000a900460ff166105a3576040517f08c379a000000000000000000000000000000000000000000000000000000000815260040161059a906115f1565b60405180910390fd5b60008160000160006101000a81548160ff0219169083151502179055504281600201819055508273ffffffffffffffffffffffffffffffffffffffff163373ffffffffffffffffffffffffffffffffffffffff167fa1673fe49d4b8e481c52acc49aaf59068bb73ef73a77b34f77646c1078cf135c60405160405180910390a361062f33846000610d05565b5b8273ffffffffffffffffffffffffffffffffffffffff163373ffffffffffffffffffffffffffffffffffffffff167f4c35f217abb26448349608de16ed6fceb6410c88398b31bbdb65332b0306addf8460405161068d9190611611565b60405180910390a3505050565b600060028054905082106106e3576040517f08c379a00000000000000000000000000000000000000000000000000000000081526004016106da90611678565b60405180910390fd5b600282815481106106f7576106f6611698565b5b9060005260206000200160009054906101000a900473ffffffffffffffffffffffffffffffffffffffff169050919050565b600060205280600052604060002060009150905080600001805461074c906116f6565b80601f0160208091040260200160405190810160405280929190818152602001828054610778906116f6565b80156107c55780601f1061079a576101008083540402835291602001916107c5565b820191906000526020600020905b8154815290600101906020018083116107a857829003601f168201915b5050505050908060010160009054906101000a900473ffffffffffffffffffffffffffffffffffffffff1690806002018054610800906116f6565b80601f016020809104026020016040519081016040528092919081815260200182805461082c906116f6565b80156108795780601f1061084e57610100808354040283529160200191610879565b820191906000526020600020905b81548152906001019060200180831161085c57829003601f168201915b5050505050908060030160009054906101000a900460ff16908060040180546108a1906116f6565b80601f01602080910402602001604051908101604052809291908181526020018280546108cd906116f6565b801561091a5780601f106108ef5761010080835404028352916020019161091a565b820191906000526020600020905b8154815290600101906020018083116108fd57829003601f168201915b5050505050905085565b6000600280549050905090565b600080600080600160008773ffffffffffffffffffffffffffffffffffffffff1673ffffffffffffffffffffffffffffffffffffffff16815260200190815260200160002060008673ffffffffffffffffffffffffffffffffffffffff1673ffffffffffffffffffffffffffffffffffffffff16815260200190815260200160002090508060000160009054906101000a900460ff1681600101548260020154935093509350509250925092565b6001602052816000526040600020602052806000526040600020600091509150508060000160009054906101000a900460ff16908060010154908060020154905083565b60028181548110610a3357600080fd5b906000526020600020016000915054906101000a900473ffffffffffffffffffffffffffffffffffffffff1681565b6000845111610aa6576040517f08c379a0000000000000000000000000000000000000000000000000000000008152600401610a9d90611773565b60405180910390fd5b600073ffffffffffffffffffffffffffffffffffffffff166000803373ffffffffffffffffffffffffffffffffffffffff1673ffffffffffffffffffffffffffffffffffffffff16815260200190815260200160002060010160009054906101000a900473ffffffffffffffffffffffffffffffffffffffff1673ffffffffffffffffffffffffffffffffffffffff1614610b76576040517f08c379a0000000000000000000000000000000000000000000000000000000008152600401610b6d906117df565b60405180910390fd5b60008060003373ffffffffffffffffffffffffffffffffffffffff1673ffffffffffffffffffffffffffffffffffffffff168152602001908152602001600020905084816000019081610bc991906119ab565b50338160010160006101000a81548173ffffffffffffffffffffffffffffffffffffffff021916908373ffffffffffffffffffffffffffffffffffffffff16021790555083816002019081610c1e91906119ab565b50828160030160006101000a81548160ff02191690831515021790555081816004019081610c4c91906119ab565b506002339080600181540180825580915050600190039060005260206000200160009091909190916101000a81548173ffffffffffffffffffffffffffffffffffffffff021916908373ffffffffffffffffffffffffffffffffffffffff1602179055503373ffffffffffffffffffffffffffffffffffffffff167fc53242cc8bdea92b6e4068fb5fd1ab329bec0f5ef4fb280d79f8abd812226b0b86604051610cf69190611a7d565b60405180910390a25050505050565b60005b600280549050811015610eb3576001600060028381548110610d2d57610d2c611698565b5b9060005260206000200160009054906101000a900473ffffffffffffffffffffffffffffffffffffffff1673ffffffffffffffffffffffffffffffffffffffff1673ffffffffffffffffffffffffffffffffffffffff16815260200190815260200160002060008473ffffffffffffffffffffffffffffffffffffffff1673ffffffffffffffffffffffffffffffffffffffff16815260200190815260200160002060000160009054906101000a900460ff1615610ea0578373ffffffffffffffffffffffffffffffffffffffff168373ffffffffffffffffffffffffffffffffffffffff1660028381548110610e2757610e26611698565b5b9060005260206000200160009054906101000a900473ffffffffffffffffffffffffffffffffffffffff1673ffffffffffffffffffffffffffffffffffffffff167fb9cecd8e725ef462b3b9e20e4c89be5a3e1dea5cec718165314f7fd5f2042ce585604051610e979190611611565b60405180910390a45b8080610eab90611ace565b915050610d08565b50505050565b6000604051905090565b600080fd5b600080fd5b600073ffffffffffffffffffffffffffffffffffffffff82169050919050565b6000610ef882610ecd565b9050919050565b610f0881610eed565b8114610f1357600080fd5b50565b600081359050610f2581610eff565b92915050565b60008115159050919050565b610f4081610f2b565b8114610f4b57600080fd5b50565b600081359050610f5d81610f37565b92915050565b60008060408385031215610f7a57610f79610ec3565b5b6000610f8885828601610f16565b9250506020610f9985828601610f4e565b9150509250929050565b6000819050919050565b610fb681610fa3565b8114610fc157600080fd5b50565b600081359050610fd381610fad565b92915050565b600060208284031215610fef57610fee610ec3565b5b6000610ffd84828501610fc4565b91505092915050565b61100f81610eed565b82525050565b600060208201905061102a6000830184611006565b92915050565b60006020828403121561104657611045610ec3565b5b600061105484828501610f16565b91505092915050565b600081519050919050565b600082825260208201905092915050565b60005b8381101561109757808201518184015260208101905061107c565b60008484015250505050565b6000601f19601f8301169050919050565b60006110bf8261105d565b6110c98185611068565b93506110d9818560208601611079565b6110e2816110a3565b840191505092915050565b6110f681610f2b565b82525050565b600060a082019050818103600083015261111681886110b4565b90506111256020830187611006565b818103604083015261113781866110b4565b905061114660608301856110ed565b818103608083015261115881846110b4565b90509695505050505050565b61116d81610fa3565b82525050565b60006020820190506111886000830184611164565b92915050565b600080604083850312156111a5576111a4610ec3565b5b60006111b385828601610f16565b92505060206111c485828601610f16565b9150509250929050565b60006060820190506111e360008301866110ed565b6111f06020830185611164565b6111fd6040830184611164565b949350505050565b600080fd5b600080fd5b7f4e487b7100000000000000000000000000000000000000000000000000000000600052604160045260246000fd5b611247826110a3565b810181811067ffffffffffffffff821117156112665761126561120f565b5b80604052505050565b6000611279610eb9565b9050611285828261123e565b919050565b600067ffffffffffffffff8211156112a5576112a461120f565b5b6112ae826110a3565b9050602081019050919050565b82818337600083830152505050565b60006112dd6112d88461128a565b61126f565b9050828152602081018484840111156112f9576112f861120a565b5b6113048482856112bb565b509392505050565b600082601f83011261132157611320611205565b5b81356113318482602086016112ca565b91505092915050565b6000806000806080858703121561135457611353610ec3565b5b600085013567ffffffffffffffff81111561137257611371610ec8565b5b61137e8782880161130c565b945050602085013567ffffffffffffffff81111561139f5761139e610ec8565b5b6113ab8782880161130c565b93505060406113bc87828801610f4e565b925050606085013567ffffffffffffffff8111156113dd576113dc610ec8565b5b6113e98782880161130c565b91505092959194509250565b7f436f6d70616e79206e6f74207265676973746572656400000000000000000000600082015250565b600061142b601683611068565b9150611436826113f5565b602082019050919050565b6000602082019050818103600083015261145a8161141e565b9050919050565b7f436f6d70616e792032206e6f7420726567697374657265640000000000000000600082015250565b6000611497601883611068565b91506114a282611461565b602082019050919050565b600060208201905081810360008301526114c68161148a565b9050919050565b7f4120636f6d70616e792063616e6e6f7420747275737420697473656c66000000600082015250565b6000611503601d83611068565b915061150e826114cd565b602082019050919050565b60006020820190508181036000830152611532816114f6565b9050919050565b7f547275737420616c726561647920657869737473000000000000000000000000600082015250565b600061156f601483611068565b915061157a82611539565b602082019050919050565b6000602082019050818103600083015261159e81611562565b9050919050565b7f547275737420646f6573206e6f74206578697374000000000000000000000000600082015250565b60006115db601483611068565b91506115e6826115a5565b602082019050919050565b6000602082019050818103600083015261160a816115ce565b9050919050565b600060208201905061162660008301846110ed565b92915050565b7f496e646578206f7574206f6620626f756e647300000000000000000000000000600082015250565b6000611662601383611068565b915061166d8261162c565b602082019050919050565b6000602082019050818103600083015261169181611655565b9050919050565b7f4e487b7100000000000000000000000000000000000000000000000000000000600052603260045260246000fd5b7f4e487b7100000000000000000000000000000000000000000000000000000000600052602260045260246000fd5b6000600282049050600182168061170e57607f821691505b602082108103611721576117206116c7565b5b50919050565b7f4e616d652063616e6e6f7420626520656d707479000000000000000000000000600082015250565b600061175d601483611068565b915061176882611727565b602082019050919050565b6000602082019050818103600083015261178c81611750565b9050919050565b7f596f7520616c72656164792068617665206120636f6d70616e79000000000000600082015250565b60006117c9601a83611068565b91506117d482611793565b602082019050919050565b600060208201905081810360008301526117f8816117bc565b9050919050565b60008190508160005260206000209050919050565b60006020601f8301049050919050565b600082821b905092915050565b6000600883026118617fffffffffffffffffffffffffffffffffffffffffffffffffffffffffffffffff82611824565b61186b8683611824565b95508019841693508086168417925050509392505050565b6000819050919050565b60006118a86118a361189e84610fa3565b611883565b610fa3565b9050919050565b6000819050919050565b6118c28361188d565b6118d66118ce826118af565b848454611831565b825550505050565b600090565b6118eb6118de565b6118f68184846118b9565b505050565b5b8181101561191a5761190f6000826118e3565b6001810190506118fc565b5050565b601f82111561195f57611930816117ff565b61193984611814565b81016020851015611948578190505b61195c61195485611814565b8301826118fb565b50505b505050565b600082821c905092915050565b600061198260001984600802611964565b1980831691505092915050565b600061199b8383611971565b9150826002028217905092915050565b6119b48261105d565b67ffffffffffffffff8111156119cd576119cc61120f565b5b6119d782546116f6565b6119e282828561191e565b600060209050601f831160018114611a155760008415611a03578287015190505b611a0d858261198f565b865550611a75565b601f198416611a23866117ff565b60005b82811015611a4b57848901518255600182019150602085019450602081019050611a26565b86831015611a685784890151611a64601f891682611971565b8355505b6001600288020188555050505b505050505050565b60006020820190508181036000830152611a9781846110b4565b905092915050565b7f4e487b7100000000000000000000000000000000000000000000000000000000600052601160045260246000fd5b6000611ad982610fa3565b91507fffffffffffffffffffffffffffffffffffffffffffffffffffffffffffffffff8203611b0b57611b0a611a9f565b5b60018201905091905056fea2646970667358221220f94b791f4cd45d42d134db344d92a964005f9650030c8589a2c4ee6f20bfa65c64736f6c63430008130033",
  "immutableReferences": {},
  "source": "// SPDX-License-Identifier: MIT\npragma solidity ^0.8.19;\n\ncontract CompanyRegistry {\n    struct Company {\n        string name;\n        address walletAddress;\n        string profilePhoto;\n        bool hasToken;\n        string tokenName;\n    }\n\n    struct TrustRecord {\n        bool isTrusted;\n        uint256 createdTimestamp;\n        uint256 removedTimestamp;\n    }\n\n    mapping(address => Company) public companies;\n    mapping(address => mapping(address => TrustRecord)) public trustMapping;\n    address[] public companyAddresses;\n\n    // Events\n    event CompanyAdded(address indexed walletAddress, string name);\n    event EcosystemUpdated(address indexed company1, address indexed company2, bool isPartnership);\n    event TrustGranted(address indexed trustor, address indexed trustee);\n    event TrustRevoked(address indexed trustor, address indexed trustee);\n    event TrustChangedForTrustedCompany(address indexed observer, address indexed trustedCompany, address indexed otherParty, bool trustGranted);\n\n    function addCompany(\n        string memory _name,\n        string memory _profilePhoto,\n        bool _hasToken,\n        string memory _tokenName\n    ) external {\n        require(bytes(_name).length > 0, \"Name cannot be empty\");\n        require(companies[msg.sender].walletAddress == address(0), \"You already have a company\");\n\n        Company storage newCompany = companies[msg.sender];\n        newCompany.name = _name;\n        newCompany.walletAddress = msg.sender;\n        newCompany.profilePhoto = _profilePhoto;\n        newCompany.hasToken = _hasToken;\n        newCompany.tokenName = _tokenName;\n\n        companyAddresses.push(msg.sender);\n        emit CompanyAdded(msg.sender, _name);\n    }\n\n    function updateEcosystem(address _company2, bool _isTrusted) external {\n        require(companies[msg.sender].walletAddress != address(0), \"Company not registered\");\n        require(companies[_company2].walletAddress != address(0), \"Company 2 not registered\");\n        require(msg.sender != _company2, \"A company cannot trust itself\");\n\n        TrustRecord storage record = trustMapping[msg.sender][_company2];\n\n        if (_isTrusted) {\n            require(!record.isTrusted, \"Trust already exists\");\n            record.isTrusted = true;\n            record.createdTimestamp = block.timestamp;\n            emit TrustGranted(msg.sender, _company2);\n            // Notify observers that trust a company\n            notifyObservers(msg.sender, _company2, true);\n        } else {\n            require(record.isTrusted, \"Trust does not exist\");\n            record.isTrusted = false;\n            record.removedTimestamp = block.timestamp;\n            emit TrustRevoked(msg.sender, _company2);\n            // Notify observers that trust a company\n            notifyObservers(msg.sender, _company2, false);\n        }\n\n        emit EcosystemUpdated(msg.sender, _company2, _isTrusted);\n    }\n\n    function notifyObservers(address _trustor, address _trustee, bool _trustGranted) internal {\n        for (uint i = 0; i < companyAddresses.length; i++) {\n            if (trustMapping[companyAddresses[i]][_trustee].isTrusted) {\n                emit TrustChangedForTrustedCompany(companyAddresses[i], _trustee, _trustor, _trustGranted);\n            }\n        }\n    }\n\n    function totalCompanies() external view returns (uint) {\n        return companyAddresses.length;\n    }\n\n    function companyAddressAtIndex(uint index) external view returns (address) {\n        require(index < companyAddresses.length, \"Index out of bounds\");\n        return companyAddresses[index];\n    }\n\n    function getTrustInfo(address _company1, address _company2) external view returns (bool isTrusted, uint256 createdTimestamp, uint256 removedTimestamp) {\n        TrustRecord storage record = trustMapping[_company1][_company2];\n        return (record.isTrusted, record.createdTimestamp, record.removedTimestamp);\n    }\n}\n",
  "sourcePath": "/Users/orkhanmirzayev/Desktop/EcoSync Events/contracts/CreateCompany.sol",
  "compiler": {
    "name": "solc",
    "version": "0.8.19+commit.7dd6d404.Emscripten.clang"
  },
  "schemaVersion": "3.4.16",
  "updatedAt": "2023-12-07T23:46:36.535Z",
  "networkType": "ethereum",
  "devdoc": {
    "kind": "dev",
    "methods": {},
    "version": 1
  },
  "userdoc": {
    "kind": "user",
    "methods": {},
    "version": 1
  }
}